{
  "contractName": "CertificateVerification",
  "abi": [
    {
      "anonymous": false,
      "inputs": [
        {
          "indexed": true,
          "internalType": "bytes32",
          "name": "certHash",
          "type": "bytes32"
        },
        {
          "indexed": false,
          "internalType": "string",
          "name": "studentName",
          "type": "string"
        },
        {
          "indexed": false,
          "internalType": "string",
          "name": "course",
          "type": "string"
        },
        {
          "indexed": false,
          "internalType": "string",
          "name": "institution",
          "type": "string"
        },
        {
          "indexed": false,
          "internalType": "uint256",
          "name": "issueDate",
          "type": "uint256"
        }
      ],
      "name": "CertificateIssued",
      "type": "event"
    },
    {
      "anonymous": false,
      "inputs": [
        {
          "indexed": true,
          "internalType": "bytes32",
          "name": "certHash",
          "type": "bytes32"
        }
      ],
      "name": "CertificateRevoked",
      "type": "event"
    },
    {
      "inputs": [
        {
          "internalType": "bytes32",
          "name": "",
          "type": "bytes32"
        }
      ],
      "name": "certificates",
      "outputs": [
        {
          "internalType": "string",
          "name": "studentName",
          "type": "string"
        },
        {
          "internalType": "string",
          "name": "course",
          "type": "string"
        },
        {
          "internalType": "string",
          "name": "institution",
          "type": "string"
        },
        {
          "internalType": "uint256",
          "name": "issueDate",
          "type": "uint256"
        },
        {
          "internalType": "bool",
          "name": "isValid",
          "type": "bool"
        }
      ],
      "stateMutability": "view",
      "type": "function",
      "constant": true
    },
    {
      "inputs": [
        {
          "internalType": "string",
          "name": "_studentName",
          "type": "string"
        },
        {
          "internalType": "string",
          "name": "_course",
          "type": "string"
        },
        {
          "internalType": "string",
          "name": "_institution",
          "type": "string"
        },
        {
          "internalType": "uint256",
          "name": "_issueDate",
          "type": "uint256"
        }
      ],
      "name": "issueCertificate",
      "outputs": [
        {
          "internalType": "bytes32",
          "name": "",
          "type": "bytes32"
        }
      ],
      "stateMutability": "nonpayable",
      "type": "function"
    },
    {
      "inputs": [
        {
          "internalType": "bytes32",
          "name": "_certHash",
          "type": "bytes32"
        }
      ],
      "name": "verifyCertificate",
      "outputs": [
        {
          "internalType": "bool",
          "name": "",
          "type": "bool"
        },
        {
          "internalType": "string",
          "name": "",
          "type": "string"
        },
        {
          "internalType": "string",
          "name": "",
          "type": "string"
        },
        {
          "internalType": "string",
          "name": "",
          "type": "string"
        },
        {
          "internalType": "uint256",
          "name": "",
          "type": "uint256"
        }
      ],
      "stateMutability": "view",
      "type": "function",
      "constant": true
    },
    {
      "inputs": [
        {
          "internalType": "bytes32",
          "name": "_certHash",
          "type": "bytes32"
        }
      ],
      "name": "revokeCertificate",
      "outputs": [],
      "stateMutability": "nonpayable",
      "type": "function"
    }
  ],
  "bytecode": "0x608060405234801561000f575f80fd5b50610b5c8061001d5f395ff3fe608060405234801561000f575f80fd5b506004361061004a575f3560e01c80631bfbd6b21461004e578063742f068814610074578063850c176814610098578063c6cbc52a146100bc575b5f80fd5b61006161005c3660046107bf565b6100d1565b6040519081526020015b60405180910390f35b610087610082366004610849565b610240565b60405161006b9594939291906108ad565b6100ab6100a6366004610849565b610403565b60405161006b9594939291906108ff565b6100cf6100ca366004610849565b610666565b005b5f80858585856040516020016100ea9493929190610952565b60408051601f1981840301815291815281516020928301205f81815292839052912060030154909150156101655760405162461bcd60e51b815260206004820152601b60248201527f436572746966696361746520616c72656164792065786973747321000000000060448201526064015b60405180910390fd5b6040805160a081018252878152602080820188905281830187905260608201869052600160808301525f8481529081905291909120815181906101a89082610a20565b50602082015160018201906101bd9082610a20565b50604082015160028201906101d29082610a20565b50606082015160038201556080909101516004909101805460ff191691151591909117905560405181907f609da1dc5a288b98d4d6e35acd31d48b7967dea867215e051fb04d53fcd686eb9061022f908990899089908990610adc565b60405180910390a295945050505050565b5f6020819052908152604090208054819061025a9061099a565b80601f01602080910402602001604051908101604052809291908181526020018280546102869061099a565b80156102d15780601f106102a8576101008083540402835291602001916102d1565b820191905f5260205f20905b8154815290600101906020018083116102b457829003601f168201915b5050505050908060010180546102e69061099a565b80601f01602080910402602001604051908101604052809291908181526020018280546103129061099a565b801561035d5780601f106103345761010080835404028352916020019161035d565b820191905f5260205f20905b81548152906001019060200180831161034057829003601f168201915b5050505050908060020180546103729061099a565b80601f016020809104026020016040519081016040528092919081815260200182805461039e9061099a565b80156103e95780601f106103c0576101008083540402835291602001916103e9565b820191905f5260205f20905b8154815290600101906020018083116103cc57829003601f168201915b50505050600383015460049093015491929160ff16905085565b5f60608060605f805f808881526020019081526020015f206040518060a00160405290815f820180546104359061099a565b80601f01602080910402602001604051908101604052809291908181526020018280546104619061099a565b80156104ac5780601f10610483576101008083540402835291602001916104ac565b820191905f5260205f20905b81548152906001019060200180831161048f57829003601f168201915b505050505081526020016001820180546104c59061099a565b80601f01602080910402602001604051908101604052809291908181526020018280546104f19061099a565b801561053c5780601f106105135761010080835404028352916020019161053c565b820191905f5260205f20905b81548152906001019060200180831161051f57829003601f168201915b505050505081526020016002820180546105559061099a565b80601f01602080910402602001604051908101604052809291908181526020018280546105819061099a565b80156105cc5780601f106105a3576101008083540402835291602001916105cc565b820191905f5260205f20905b8154815290600101906020018083116105af57829003601f168201915b50505091835250506003820154602082015260049091015460ff16151560409091015260608101519091505f0361063e5760405162461bcd60e51b81526020600482015260166024820152754365727469666963617465206e6f7420666f756e642160501b604482015260640161015c565b6080810151815160208301516040840151606090940151929a91995097509195509350915050565b5f8181526020819052604090206004015460ff166106e05760405162461bcd60e51b815260206004820152603160248201527f436572746966696361746520646f6573206e6f74206578697374206f7220697360448201527020616c7265616479207265766f6b65642160781b606482015260840161015c565b5f81815260208190526040808220600401805460ff191690555182917f44d80a438cb4fa3b5aedbe551ce3d9382e37f446917b783e1dee70a03b4180e391a250565b634e487b7160e01b5f52604160045260245ffd5b5f82601f830112610745575f80fd5b813567ffffffffffffffff8082111561076057610760610722565b604051601f8301601f19908116603f0116810190828211818310171561078857610788610722565b816040528381528660208588010111156107a0575f80fd5b836020870160208301375f602085830101528094505050505092915050565b5f805f80608085870312156107d2575f80fd5b843567ffffffffffffffff808211156107e9575f80fd5b6107f588838901610736565b9550602087013591508082111561080a575f80fd5b61081688838901610736565b9450604087013591508082111561082b575f80fd5b5061083887828801610736565b949793965093946060013593505050565b5f60208284031215610859575f80fd5b5035919050565b5f5b8381101561087a578181015183820152602001610862565b50505f910152565b5f8151808452610899816020860160208601610860565b601f01601f19169290920160200192915050565b60a081525f6108bf60a0830188610882565b82810360208401526108d18188610882565b905082810360408401526108e58187610882565b606084019590955250509015156080909101529392505050565b851515815260a060208201525f61091960a0830187610882565b828103604084015261092b8187610882565b9050828103606084015261093f8186610882565b9150508260808301529695505050505050565b5f8551610963818460208a01610860565b855190830190610977818360208a01610860565b855191019061098a818360208901610860565b0192835250506020019392505050565b600181811c908216806109ae57607f821691505b6020821081036109cc57634e487b7160e01b5f52602260045260245ffd5b50919050565b601f821115610a1b575f81815260208120601f850160051c810160208610156109f85750805b601f850160051c820191505b81811015610a1757828155600101610a04565b5050505b505050565b815167ffffffffffffffff811115610a3a57610a3a610722565b610a4e81610a48845461099a565b846109d2565b602080601f831160018114610a81575f8415610a6a5750858301515b5f19600386901b1c1916600185901b178555610a17565b5f85815260208120601f198616915b82811015610aaf57888601518255948401946001909101908401610a90565b5085821015610acc57878501515f19600388901b60f8161c191681555b5050505050600190811b01905550565b608081525f610aee6080830187610882565b8281036020840152610b008187610882565b90508281036040840152610b148186610882565b9150508260608301529594505050505056fea2646970667358221220b42811a25a2cef126fdfdc818bd63f8f2de01d64533a5bd5e78bc6c5f62210de64736f6c63430008150033",
  "immutableReferences": {},
  "source": "// SPDX-License-Identifier: MIT\r\npragma solidity ^0.8.0;\r\n\r\ncontract CertificateVerification {\r\n    struct Certificate {\r\n        string studentName;\r\n        string course;\r\n        string institution;\r\n        uint256 issueDate;\r\n        bool isValid;\r\n    }\r\n\r\n    mapping(bytes32 => Certificate) public certificates;\r\n\r\n    event CertificateIssued(bytes32 indexed certHash, string studentName, string course, string institution, uint256 issueDate);\r\n    event CertificateRevoked(bytes32 indexed certHash);\r\n\r\n    function issueCertificate(string memory _studentName, string memory _course, string memory _institution, uint256 _issueDate) public returns (bytes32) {\r\n        bytes32 certHash = keccak256(abi.encodePacked(_studentName, _course, _institution, _issueDate));\r\n        require(certificates[certHash].issueDate == 0, \"Certificate already exists!\");\r\n\r\n        certificates[certHash] = Certificate(_studentName, _course, _institution, _issueDate, true);\r\n        \r\n        emit CertificateIssued(certHash, _studentName, _course, _institution, _issueDate);\r\n        return certHash;\r\n    }\r\n\r\n    function verifyCertificate(bytes32 _certHash) public view returns (bool, string memory, string memory, string memory, uint256) {\r\n        Certificate memory cert = certificates[_certHash];\r\n        require(cert.issueDate != 0, \"Certificate not found!\");\r\n\r\n        return (cert.isValid, cert.studentName, cert.course, cert.institution, cert.issueDate);\r\n    }\r\n\r\n    function revokeCertificate(bytes32 _certHash) public {\r\n        require(certificates[_certHash].isValid, \"Certificate does not exist or is already revoked!\");\r\n        certificates[_certHash].isValid = false;\r\n\r\n        emit CertificateRevoked(_certHash);\r\n    }\r\n}\r\n",
  "sourcePath": "C:\\Users\\HP\\OneDrive\\Desktop\\CEVERSYS\\certificate-verification-system\\contracts\\Certificate.sol",
  "compiler": {
    "name": "solc",
    "version": "0.8.21+commit.d9974bed.Emscripten.clang"
  },
  "schemaVersion": "3.4.16",
  "updatedAt": "2025-10-14T09:22:07.580Z",
  "networkType": "ethereum",
  "devdoc": {
    "kind": "dev",
    "methods": {},
    "version": 1
  },
  "userdoc": {
    "kind": "user",
    "methods": {},
    "version": 1
  }
}